{
  "contractName": "VaxiChain",
  "abi": [
    {
      "inputs": [
        {
          "internalType": "string",
          "name": "",
          "type": "string"
        }
      ],
      "name": "beneficiary",
      "outputs": [
        {
          "internalType": "string",
          "name": "name",
          "type": "string"
        },
        {
          "internalType": "uint256",
          "name": "age",
          "type": "uint256"
        },
        {
          "internalType": "string",
          "name": "gender",
          "type": "string"
        },
        {
          "internalType": "string",
          "name": "adharID",
          "type": "string"
        },
        {
          "internalType": "uint256",
          "name": "doctorID",
          "type": "uint256"
        },
        {
          "internalType": "string",
          "name": "vaccinated_date",
          "type": "string"
        },
        {
          "internalType": "string",
          "name": "vaccine_center",
          "type": "string"
        },
        {
          "internalType": "bool",
          "name": "vaccinated",
          "type": "bool"
        }
      ],
      "stateMutability": "view",
      "type": "function",
      "constant": true
    },
    {
      "inputs": [],
      "name": "beneficiaryCount",
      "outputs": [
        {
          "internalType": "uint256",
          "name": "",
          "type": "uint256"
        }
      ],
      "stateMutability": "view",
      "type": "function",
      "constant": true
    },
    {
      "inputs": [
        {
          "internalType": "string",
          "name": "",
          "type": "string"
        }
      ],
      "name": "distributor",
      "outputs": [
        {
          "internalType": "string",
          "name": "licenceNO",
          "type": "string"
        },
        {
          "internalType": "string",
          "name": "name",
          "type": "string"
        },
        {
          "internalType": "string",
          "name": "location",
          "type": "string"
        }
      ],
      "stateMutability": "view",
      "type": "function",
      "constant": true
    },
    {
      "inputs": [],
      "name": "distributorCount",
      "outputs": [
        {
          "internalType": "uint256",
          "name": "",
          "type": "uint256"
        }
      ],
      "stateMutability": "view",
      "type": "function",
      "constant": true
    },
    {
      "inputs": [
        {
          "internalType": "string",
          "name": "",
          "type": "string"
        }
      ],
      "name": "doctor",
      "outputs": [
        {
          "internalType": "string",
          "name": "licenceNO",
          "type": "string"
        },
        {
          "internalType": "string",
          "name": "name",
          "type": "string"
        },
        {
          "internalType": "string",
          "name": "phone",
          "type": "string"
        }
      ],
      "stateMutability": "view",
      "type": "function",
      "constant": true
    },
    {
      "inputs": [],
      "name": "doctorCount",
      "outputs": [
        {
          "internalType": "uint256",
          "name": "",
          "type": "uint256"
        }
      ],
      "stateMutability": "view",
      "type": "function",
      "constant": true
    },
    {
      "inputs": [],
      "name": "doseCount",
      "outputs": [
        {
          "internalType": "uint256",
          "name": "",
          "type": "uint256"
        }
      ],
      "stateMutability": "view",
      "type": "function",
      "constant": true
    },
    {
      "inputs": [
        {
          "internalType": "string",
          "name": "",
          "type": "string"
        }
      ],
      "name": "manufacture",
      "outputs": [
        {
          "internalType": "string",
          "name": "licenceNO",
          "type": "string"
        },
        {
          "internalType": "string",
          "name": "name",
          "type": "string"
        },
        {
          "internalType": "string",
          "name": "location",
          "type": "string"
        }
      ],
      "stateMutability": "view",
      "type": "function",
      "constant": true
    },
    {
      "inputs": [],
      "name": "manufactureCount",
      "outputs": [
        {
          "internalType": "uint256",
          "name": "",
          "type": "uint256"
        }
      ],
      "stateMutability": "view",
      "type": "function",
      "constant": true
    },
    {
      "inputs": [
        {
          "internalType": "string",
          "name": "",
          "type": "string"
        }
      ],
      "name": "onDemand",
      "outputs": [
        {
          "internalType": "uint256",
          "name": "doses",
          "type": "uint256"
        }
      ],
      "stateMutability": "view",
      "type": "function",
      "constant": true
    },
    {
      "inputs": [
        {
          "internalType": "string",
          "name": "",
          "type": "string"
        }
      ],
      "name": "rules",
      "outputs": [
        {
          "internalType": "string",
          "name": "vaccine_id",
          "type": "string"
        },
        {
          "internalType": "uint256",
          "name": "min_temp",
          "type": "uint256"
        },
        {
          "internalType": "uint256",
          "name": "max_temp",
          "type": "uint256"
        },
        {
          "internalType": "uint256",
          "name": "doses",
          "type": "uint256"
        },
        {
          "internalType": "string",
          "name": "manuactureDate",
          "type": "string"
        }
      ],
      "stateMutability": "view",
      "type": "function",
      "constant": true
    },
    {
      "inputs": [],
      "name": "sideEffectCount",
      "outputs": [
        {
          "internalType": "uint256",
          "name": "",
          "type": "uint256"
        }
      ],
      "stateMutability": "view",
      "type": "function",
      "constant": true
    },
    {
      "inputs": [
        {
          "internalType": "uint256",
          "name": "",
          "type": "uint256"
        }
      ],
      "name": "sideEffects",
      "outputs": [
        {
          "internalType": "string",
          "name": "vaccine_id",
          "type": "string"
        },
        {
          "internalType": "string",
          "name": "beneficiary_id",
          "type": "string"
        },
        {
          "internalType": "string",
          "name": "sideEffect",
          "type": "string"
        }
      ],
      "stateMutability": "view",
      "type": "function",
      "constant": true
    },
    {
      "inputs": [
        {
          "internalType": "string",
          "name": "",
          "type": "string"
        }
      ],
      "name": "vaccine",
      "outputs": [
        {
          "internalType": "string",
          "name": "vaccine_id",
          "type": "string"
        },
        {
          "internalType": "string",
          "name": "name",
          "type": "string"
        },
        {
          "internalType": "uint256",
          "name": "vails",
          "type": "uint256"
        },
        {
          "internalType": "string",
          "name": "expdate",
          "type": "string"
        },
        {
          "internalType": "uint256",
          "name": "manufactureId",
          "type": "uint256"
        },
        {
          "internalType": "string",
          "name": "arrived_dateDistributor",
          "type": "string"
        },
        {
          "internalType": "uint256",
          "name": "distributorId",
          "type": "uint256"
        },
        {
          "internalType": "string",
          "name": "arrived_dateVaccineCenter",
          "type": "string"
        },
        {
          "internalType": "uint256",
          "name": "vaccineCenterId",
          "type": "uint256"
        }
      ],
      "stateMutability": "view",
      "type": "function",
      "constant": true
    },
    {
      "inputs": [
        {
          "internalType": "string",
          "name": "",
          "type": "string"
        }
      ],
      "name": "vaccineCenter",
      "outputs": [
        {
          "internalType": "string",
          "name": "licenceNO",
          "type": "string"
        },
        {
          "internalType": "string",
          "name": "name",
          "type": "string"
        },
        {
          "internalType": "string",
          "name": "phone",
          "type": "string"
        },
        {
          "internalType": "string",
          "name": "location",
          "type": "string"
        }
      ],
      "stateMutability": "view",
      "type": "function",
      "constant": true
    },
    {
      "inputs": [],
      "name": "vaccineCenterCount",
      "outputs": [
        {
          "internalType": "uint256",
          "name": "",
          "type": "uint256"
        }
      ],
      "stateMutability": "view",
      "type": "function",
      "constant": true
    },
    {
      "inputs": [
        {
          "internalType": "string",
          "name": "",
          "type": "string"
        }
      ],
      "name": "violation",
      "outputs": [
        {
          "internalType": "string",
          "name": "vaccine_id",
          "type": "string"
        },
        {
          "internalType": "bool",
          "name": "violated",
          "type": "bool"
        }
      ],
      "stateMutability": "view",
      "type": "function",
      "constant": true
    },
    {
      "inputs": [
        {
          "internalType": "string",
          "name": "licenceNo",
          "type": "string"
        },
        {
          "internalType": "string",
          "name": "name",
          "type": "string"
        },
        {
          "internalType": "string",
          "name": "location",
          "type": "string"
        }
      ],
      "name": "AddManufacture",
      "outputs": [],
      "stateMutability": "nonpayable",
      "type": "function"
    },
    {
      "inputs": [
        {
          "internalType": "string",
          "name": "licenceNo",
          "type": "string"
        },
        {
          "internalType": "string",
          "name": "name",
          "type": "string"
        },
        {
          "internalType": "string",
          "name": "location",
          "type": "string"
        }
      ],
      "name": "AddDistributer",
      "outputs": [],
      "stateMutability": "nonpayable",
      "type": "function"
    },
    {
      "inputs": [
        {
          "internalType": "string",
          "name": "licenceNo",
          "type": "string"
        },
        {
          "internalType": "string",
          "name": "name",
          "type": "string"
        },
        {
          "internalType": "string",
          "name": "phone",
          "type": "string"
        },
        {
          "internalType": "string",
          "name": "location",
          "type": "string"
        }
      ],
      "name": "AddVaccineCenter",
      "outputs": [],
      "stateMutability": "nonpayable",
      "type": "function"
    },
    {
      "inputs": [
        {
          "internalType": "string",
          "name": "name",
          "type": "string"
        },
        {
          "internalType": "uint256",
          "name": "age",
          "type": "uint256"
        },
        {
          "internalType": "string",
          "name": "gender",
          "type": "string"
        },
        {
          "internalType": "string",
          "name": "AdharID",
          "type": "string"
        },
        {
          "internalType": "uint256",
          "name": "doctorID",
          "type": "uint256"
        },
        {
          "internalType": "string",
          "name": "vaccinated_date",
          "type": "string"
        },
        {
          "internalType": "string",
          "name": "vaccine_center",
          "type": "string"
        },
        {
          "internalType": "bool",
          "name": "vaccinated",
          "type": "bool"
        }
      ],
      "name": "AddBeneficiary",
      "outputs": [],
      "stateMutability": "nonpayable",
      "type": "function"
    },
    {
      "inputs": [
        {
          "internalType": "string",
          "name": "vaccine_name",
          "type": "string"
        }
      ],
      "name": "VaccineRegister",
      "outputs": [],
      "stateMutability": "nonpayable",
      "type": "function"
    },
    {
      "inputs": [
        {
          "internalType": "string",
          "name": "licenseNo",
          "type": "string"
        },
        {
          "internalType": "string",
          "name": "name",
          "type": "string"
        },
        {
          "internalType": "string",
          "name": "phone",
          "type": "string"
        }
      ],
      "name": "AddDoctor",
      "outputs": [],
      "stateMutability": "nonpayable",
      "type": "function"
    },
    {
      "inputs": [
        {
          "internalType": "string",
          "name": "id",
          "type": "string"
        },
        {
          "internalType": "string",
          "name": "name",
          "type": "string"
        },
        {
          "internalType": "uint256",
          "name": "vails",
          "type": "uint256"
        },
        {
          "internalType": "string",
          "name": "exp_date",
          "type": "string"
        },
        {
          "internalType": "uint256",
          "name": "manfacturer",
          "type": "uint256"
        },
        {
          "internalType": "string",
          "name": "arrived_date_distributor",
          "type": "string"
        },
        {
          "internalType": "uint256",
          "name": "distributor",
          "type": "uint256"
        },
        {
          "internalType": "string",
          "name": "arrived_date_vaccine_center",
          "type": "string"
        },
        {
          "internalType": "uint256",
          "name": "vaccine_center",
          "type": "uint256"
        }
      ],
      "name": "ManuFacturedVaccine",
      "outputs": [],
      "stateMutability": "nonpayable",
      "type": "function"
    },
    {
      "inputs": [
        {
          "internalType": "string",
          "name": "id",
          "type": "string"
        },
        {
          "internalType": "uint256",
          "name": "min_temp",
          "type": "uint256"
        },
        {
          "internalType": "uint256",
          "name": "max_temp",
          "type": "uint256"
        },
        {
          "internalType": "uint256",
          "name": "doses",
          "type": "uint256"
        },
        {
          "internalType": "string",
          "name": "manufacture_date",
          "type": "string"
        }
      ],
      "name": "AddRules",
      "outputs": [],
      "stateMutability": "nonpayable",
      "type": "function"
    },
    {
      "inputs": [
        {
          "internalType": "string",
          "name": "id",
          "type": "string"
        }
      ],
      "name": "AddViolation",
      "outputs": [],
      "stateMutability": "nonpayable",
      "type": "function"
    },
    {
      "inputs": [
        {
          "internalType": "string",
          "name": "id",
          "type": "string"
        },
        {
          "internalType": "string",
          "name": "beneficiary_id",
          "type": "string"
        },
        {
          "internalType": "string",
          "name": "txt",
          "type": "string"
        }
      ],
      "name": "AddSideEffect",
      "outputs": [],
      "stateMutability": "nonpayable",
      "type": "function"
    },
    {
      "inputs": [
        {
          "internalType": "string",
          "name": "id",
          "type": "string"
        },
        {
          "internalType": "string",
          "name": "arrived_date",
          "type": "string"
        },
        {
          "internalType": "uint256",
          "name": "distributor_id",
          "type": "uint256"
        }
      ],
      "name": "ArrivedDistributor",
      "outputs": [],
      "stateMutability": "nonpayable",
      "type": "function"
    },
    {
      "inputs": [
        {
          "internalType": "string",
          "name": "id",
          "type": "string"
        },
        {
          "internalType": "string",
          "name": "arrived_date",
          "type": "string"
        },
        {
          "internalType": "uint256",
          "name": "vaccine_center_id",
          "type": "uint256"
        }
      ],
      "name": "ArrivedVaccineCenter",
      "outputs": [],
      "stateMutability": "nonpayable",
      "type": "function"
    },
    {
      "inputs": [
        {
          "internalType": "string",
          "name": "vaccine_id",
          "type": "string"
        },
        {
          "internalType": "uint256",
          "name": "temp",
          "type": "uint256"
        }
      ],
      "name": "tracking",
      "outputs": [],
      "stateMutability": "nonpayable",
      "type": "function"
    }
  ],
  "bytecode": "0x60806040526000600a556000600b556000600c556000600d556000600e556000600f55600060105534801561003357600080fd5b50615148806100436000396000f3fe608060405234801561001057600080fd5b50600436106101da5760003560e01c8063ae21720411610104578063dc1544de116100a2578063f02ae6ba11610071578063f02ae6ba14612854578063f5df2cae14612a60578063f943b74614612b1b578063fa851e9614612bd6576101da565b8063dc1544de14611fb9578063dc52a78114612239578063ea5d038214612579578063ecf0004514612648576101da565b8063bbfb8623116100de578063bbfb862314611c55578063c6ddcaf614611d94578063cfec66df14611f7d578063d97369e114611f9b576101da565b8063ae21720414611828578063b0133ea0146119a7578063b775935d14611a6c576101da565b806350aaeea41161017c578063954e3b051161014b578063954e3b0514610f335780639d228ec61461111c578063a20de13c14611454578063aa22237c146116cc576101da565b806350aaeea414610b7b578063537f4be914610d87578063734b2a7c14610ef757806378522bc414610f15576101da565b8063322f63fd116101b8578063322f63fd146104045780633ac140e814610701578063450413e51461071f57806348b891fd1461087b576101da565b80631378921f146101df5780631746a4b4146103c857806321fde754146103e6575b600080fd5b6103c6600480360360608110156101f557600080fd5b810190808035906020019064010000000081111561021257600080fd5b82018360208201111561022457600080fd5b8035906020019184600183028401116401000000008311171561024657600080fd5b91908080601f016020809104026020016040519081016040528093929190818152602001838380828437600081840152601f19601f820116905080830192505050505050509192919290803590602001906401000000008111156102a957600080fd5b8201836020820111156102bb57600080fd5b803590602001918460018302840111640100000000831117156102dd57600080fd5b91908080601f016020809104026020016040519081016040528093929190818152602001838380828437600081840152601f19601f8201169050808301925050505050505091929192908035906020019064010000000081111561034057600080fd5b82018360208201111561035257600080fd5b8035906020019184600183028401116401000000008311171561037457600080fd5b91908080601f016020809104026020016040519081016040528093929190818152602001838380828437600081840152601f19601f820116905080830192505050505050509192919290505050612d8b565b005b6103d0612e80565b6040518082815260200191505060405180910390f35b6103ee612e86565b6040518082815260200191505060405180910390f35b6104bd6004803603602081101561041a57600080fd5b810190808035906020019064010000000081111561043757600080fd5b82018360208201111561044957600080fd5b8035906020019184600183028401116401000000008311171561046b57600080fd5b91908080601f016020809104026020016040519081016040528093929190818152602001838380828437600081840152601f19601f820116905080830192505050505050509192919290505050612e8c565b6040518080602001898152602001806020018060200188815260200180602001806020018715151515815260200186810386528e818151815260200191508051906020019080838360005b83811015610523578082015181840152602081019050610508565b50505050905090810190601f1680156105505780820380516001836020036101000a031916815260200191505b5086810385528c818151815260200191508051906020019080838360005b8381101561058957808201518184015260208101905061056e565b50505050905090810190601f1680156105b65780820380516001836020036101000a031916815260200191505b5086810384528b818151815260200191508051906020019080838360005b838110156105ef5780820151818401526020810190506105d4565b50505050905090810190601f16801561061c5780820380516001836020036101000a031916815260200191505b50868103835289818151815260200191508051906020019080838360005b8381101561065557808201518184015260208101905061063a565b50505050905090810190601f1680156106825780820380516001836020036101000a031916815260200191505b50868103825288818151815260200191508051906020019080838360005b838110156106bb5780820151818401526020810190506106a0565b50505050905090810190601f1680156106e85780820380516001836020036101000a031916815260200191505b509d505050505050505050505050505060405180910390f35b6107096131ef565b6040518082815260200191505060405180910390f35b6108796004803603606081101561073557600080fd5b810190808035906020019064010000000081111561075257600080fd5b82018360208201111561076457600080fd5b8035906020019184600183028401116401000000008311171561078657600080fd5b91908080601f016020809104026020016040519081016040528093929190818152602001838380828437600081840152601f19601f820116905080830192505050505050509192919290803590602001906401000000008111156107e957600080fd5b8201836020820111156107fb57600080fd5b8035906020019184600183028401116401000000008311171561081d57600080fd5b91908080601f016020809104026020016040519081016040528093929190818152602001838380828437600081840152601f19601f820116905080830192505050505050509192919290803590602001909291905050506131f5565b005b6109346004803603602081101561089157600080fd5b81019080803590602001906401000000008111156108ae57600080fd5b8201836020820111156108c057600080fd5b803590602001918460018302840111640100000000831117156108e257600080fd5b91908080601f016020809104026020016040519081016040528093929190818152602001838380828437600081840152601f19601f8201169050808301925050505050505091929192905050506132ec565b6040518080602001806020018a815260200180602001898152602001806020018881526020018060200187815260200186810386528f818151815260200191508051906020019080838360005b8381101561099c578082015181840152602081019050610981565b50505050905090810190601f1680156109c95780820380516001836020036101000a031916815260200191505b5086810385528e818151815260200191508051906020019080838360005b83811015610a025780820151818401526020810190506109e7565b50505050905090810190601f168015610a2f5780820380516001836020036101000a031916815260200191505b5086810384528c818151815260200191508051906020019080838360005b83811015610a68578082015181840152602081019050610a4d565b50505050905090810190601f168015610a955780820380516001836020036101000a031916815260200191505b5086810383528a818151815260200191508051906020019080838360005b83811015610ace578082015181840152602081019050610ab3565b50505050905090810190601f168015610afb5780820380516001836020036101000a031916815260200191505b50868103825288818151815260200191508051906020019080838360005b83811015610b34578082015181840152602081019050610b19565b50505050905090810190601f168015610b615780820380516001836020036101000a031916815260200191505b509e50505050505050505050505050505060405180910390f35b610c3460048036036020811015610b9157600080fd5b8101908080359060200190640100000000811115610bae57600080fd5b820183602082011115610bc057600080fd5b80359060200191846001830284011164010000000083111715610be257600080fd5b91908080601f016020809104026020016040519081016040528093929190818152602001838380828437600081840152601f19601f820116905080830192505050505050509192919290505050613648565b60405180806020018060200180602001848103845287818151815260200191508051906020019080838360005b83811015610c7c578082015181840152602081019050610c61565b50505050905090810190601f168015610ca95780820380516001836020036101000a031916815260200191505b50848103835286818151815260200191508051906020019080838360005b83811015610ce2578082015181840152602081019050610cc7565b50505050905090810190601f168015610d0f5780820380516001836020036101000a031916815260200191505b50848103825285818151815260200191508051906020019080838360005b83811015610d48578082015181840152602081019050610d2d565b50505050905090810190601f168015610d755780820380516001836020036101000a031916815260200191505b50965050505050505060405180910390f35b610ef5600480360360a0811015610d9d57600080fd5b8101908080359060200190640100000000811115610dba57600080fd5b820183602082011115610dcc57600080fd5b80359060200191846001830284011164010000000083111715610dee57600080fd5b91908080601f016020809104026020016040519081016040528093929190818152602001838380828437600081840152601f19601f82011690508083019250505050505050919291929080359060200190929190803590602001909291908035906020019092919080359060200190640100000000811115610e6f57600080fd5b820183602082011115610e8157600080fd5b80359060200191846001830284011164010000000083111715610ea357600080fd5b91908080601f016020809104026020016040519081016040528093929190818152602001838380828437600081840152601f19601f820116905080830192505050505050509192919290505050613850565b005b610eff613942565b6040518082815260200191505060405180910390f35b610f1d613948565b6040518082815260200191505060405180910390f35b61111a60048036036060811015610f4957600080fd5b8101908080359060200190640100000000811115610f6657600080fd5b820183602082011115610f7857600080fd5b80359060200191846001830284011164010000000083111715610f9a57600080fd5b91908080601f016020809104026020016040519081016040528093929190818152602001838380828437600081840152601f19601f82011690508083019250505050505050919291929080359060200190640100000000811115610ffd57600080fd5b82018360208201111561100f57600080fd5b8035906020019184600183028401116401000000008311171561103157600080fd5b91908080601f016020809104026020016040519081016040528093929190818152602001838380828437600081840152601f19601f8201169050808301925050505050505091929192908035906020019064010000000081111561109457600080fd5b8201836020820111156110a657600080fd5b803590602001918460018302840111640100000000831117156110c857600080fd5b91908080601f016020809104026020016040519081016040528093929190818152602001838380828437600081840152601f19601f82011690508083019250505050505050919291929050505061394e565b005b611452600480360361010081101561113357600080fd5b810190808035906020019064010000000081111561115057600080fd5b82018360208201111561116257600080fd5b8035906020019184600183028401116401000000008311171561118457600080fd5b91908080601f016020809104026020016040519081016040528093929190818152602001838380828437600081840152601f19601f82011690508083019250505050505050919291929080359060200190929190803590602001906401000000008111156111f157600080fd5b82018360208201111561120357600080fd5b8035906020019184600183028401116401000000008311171561122557600080fd5b91908080601f016020809104026020016040519081016040528093929190818152602001838380828437600081840152601f19601f8201169050808301925050505050505091929192908035906020019064010000000081111561128857600080fd5b82018360208201111561129a57600080fd5b803590602001918460018302840111640100000000831117156112bc57600080fd5b91908080601f016020809104026020016040519081016040528093929190818152602001838380828437600081840152601f19601f820116905080830192505050505050509192919290803590602001909291908035906020019064010000000081111561132957600080fd5b82018360208201111561133b57600080fd5b8035906020019184600183028401116401000000008311171561135d57600080fd5b91908080601f016020809104026020016040519081016040528093929190818152602001838380828437600081840152601f19601f820116905080830192505050505050509192919290803590602001906401000000008111156113c057600080fd5b8201836020820111156113d257600080fd5b803590602001918460018302840111640100000000831117156113f457600080fd5b91908080601f016020809104026020016040519081016040528093929190818152602001838380828437600081840152601f19601f820116905080830192505050505050509192919290803515159060200190929190505050613a43565b005b61150d6004803603602081101561146a57600080fd5b810190808035906020019064010000000081111561148757600080fd5b82018360208201111561149957600080fd5b803590602001918460018302840111640100000000831117156114bb57600080fd5b91908080601f016020809104026020016040519081016040528093929190818152602001838380828437600081840152601f19601f820116905080830192505050505050509192919290505050613bcc565b6040518080602001806020018060200180602001858103855289818151815260200191508051906020019080838360005b8381101561155957808201518184015260208101905061153e565b50505050905090810190601f1680156115865780820380516001836020036101000a031916815260200191505b50858103845288818151815260200191508051906020019080838360005b838110156115bf5780820151818401526020810190506115a4565b50505050905090810190601f1680156115ec5780820380516001836020036101000a031916815260200191505b50858103835287818151815260200191508051906020019080838360005b8381101561162557808201518184015260208101905061160a565b50505050905090810190601f1680156116525780820380516001836020036101000a031916815260200191505b50858103825286818151815260200191508051906020019080838360005b8381101561168b578082015181840152602081019050611670565b50505050905090810190601f1680156116b85780820380516001836020036101000a031916815260200191505b509850505050505050505060405180910390f35b611826600480360360608110156116e257600080fd5b81019080803590602001906401000000008111156116ff57600080fd5b82018360208201111561171157600080fd5b8035906020019184600183028401116401000000008311171561173357600080fd5b91908080601f016020809104026020016040519081016040528093929190818152602001838380828437600081840152601f19601f8201169050808301925050505050505091929192908035906020019064010000000081111561179657600080fd5b8201836020820111156117a857600080fd5b803590602001918460018302840111640100000000831117156117ca57600080fd5b91908080601f016020809104026020016040519081016040528093929190818152602001838380828437600081840152601f19601f82011690508083019250505050505050919291929080359060200190929190505050613e72565b005b6118546004803603602081101561183e57600080fd5b8101908080359060200190929190505050613f69565b60405180806020018060200180602001848103845287818151815260200191508051906020019080838360005b8381101561189c578082015181840152602081019050611881565b50505050905090810190601f1680156118c95780820380516001836020036101000a031916815260200191505b50848103835286818151815260200191508051906020019080838360005b838110156119025780820151818401526020810190506118e7565b50505050905090810190601f16801561192f5780820380516001836020036101000a031916815260200191505b50848103825285818151815260200191508051906020019080838360005b8381101561196857808201518184015260208101905061194d565b50505050905090810190601f1680156119955780820380516001836020036101000a031916815260200191505b50965050505050505060405180910390f35b611a6a600480360360408110156119bd57600080fd5b81019080803590602001906401000000008111156119da57600080fd5b8201836020820111156119ec57600080fd5b80359060200191846001830284011164010000000083111715611a0e57600080fd5b91908080601f016020809104026020016040519081016040528093929190818152602001838380828437600081840152601f19601f8201169050808301925050505050505091929192908035906020019092919050505061415b565b005b611c5360048036036060811015611a8257600080fd5b8101908080359060200190640100000000811115611a9f57600080fd5b820183602082011115611ab157600080fd5b80359060200191846001830284011164010000000083111715611ad357600080fd5b91908080601f016020809104026020016040519081016040528093929190818152602001838380828437600081840152601f19601f82011690508083019250505050505050919291929080359060200190640100000000811115611b3657600080fd5b820183602082011115611b4857600080fd5b80359060200191846001830284011164010000000083111715611b6a57600080fd5b91908080601f016020809104026020016040519081016040528093929190818152602001838380828437600081840152601f19601f82011690508083019250505050505050919291929080359060200190640100000000811115611bcd57600080fd5b820183602082011115611bdf57600080fd5b80359060200191846001830284011164010000000083111715611c0157600080fd5b91908080601f016020809104026020016040519081016040528093929190818152602001838380828437600081840152601f19601f82011690508083019250505050505050919291929050505061435a565b005b611d0e60048036036020811015611c6b57600080fd5b8101908080359060200190640100000000811115611c8857600080fd5b820183602082011115611c9a57600080fd5b80359060200191846001830284011164010000000083111715611cbc57600080fd5b91908080601f016020809104026020016040519081016040528093929190818152602001838380828437600081840152601f19601f82011690508083019250505050505050919291929050505061444f565b604051808060200183151515158152602001828103825284818151815260200191508051906020019080838360005b83811015611d58578082015181840152602081019050611d3d565b50505050905090810190601f168015611d855780820380516001836020036101000a031916815260200191505b50935050505060405180910390f35b611f7b60048036036060811015611daa57600080fd5b8101908080359060200190640100000000811115611dc757600080fd5b820183602082011115611dd957600080fd5b80359060200191846001830284011164010000000083111715611dfb57600080fd5b91908080601f016020809104026020016040519081016040528093929190818152602001838380828437600081840152601f19601f82011690508083019250505050505050919291929080359060200190640100000000811115611e5e57600080fd5b820183602082011115611e7057600080fd5b80359060200191846001830284011164010000000083111715611e9257600080fd5b91908080601f016020809104026020016040519081016040528093929190818152602001838380828437600081840152601f19601f82011690508083019250505050505050919291929080359060200190640100000000811115611ef557600080fd5b820183602082011115611f0757600080fd5b80359060200191846001830284011164010000000083111715611f2957600080fd5b91908080601f016020809104026020016040519081016040528093929190818152602001838380828437600081840152601f19601f82011690508083019250505050505050919291929050505061452e565b005b611f856145cf565b6040518082815260200191505060405180910390f35b611fa36145d5565b6040518082815260200191505060405180910390f35b61223760048036036080811015611fcf57600080fd5b8101908080359060200190640100000000811115611fec57600080fd5b820183602082011115611ffe57600080fd5b8035906020019184600183028401116401000000008311171561202057600080fd5b91908080601f016020809104026020016040519081016040528093929190818152602001838380828437600081840152601f19601f8201169050808301925050505050505091929192908035906020019064010000000081111561208357600080fd5b82018360208201111561209557600080fd5b803590602001918460018302840111640100000000831117156120b757600080fd5b91908080601f016020809104026020016040519081016040528093929190818152602001838380828437600081840152601f19601f8201169050808301925050505050505091929192908035906020019064010000000081111561211a57600080fd5b82018360208201111561212c57600080fd5b8035906020019184600183028401116401000000008311171561214e57600080fd5b91908080601f016020809104026020016040519081016040528093929190818152602001838380828437600081840152601f19601f820116905080830192505050505050509192919290803590602001906401000000008111156121b157600080fd5b8201836020820111156121c357600080fd5b803590602001918460018302840111640100000000831117156121e557600080fd5b91908080601f016020809104026020016040519081016040528093929190818152602001838380828437600081840152601f19601f8201169050808301925050505050505091929192905050506145db565b005b612577600480360361012081101561225057600080fd5b810190808035906020019064010000000081111561226d57600080fd5b82018360208201111561227f57600080fd5b803590602001918460018302840111640100000000831117156122a157600080fd5b91908080601f016020809104026020016040519081016040528093929190818152602001838380828437600081840152601f19601f8201169050808301925050505050505091929192908035906020019064010000000081111561230457600080fd5b82018360208201111561231657600080fd5b8035906020019184600183028401116401000000008311171561233857600080fd5b91908080601f016020809104026020016040519081016040528093929190818152602001838380828437600081840152601f19601f82011690508083019250505050505050919291929080359060200190929190803590602001906401000000008111156123a557600080fd5b8201836020820111156123b757600080fd5b803590602001918460018302840111640100000000831117156123d957600080fd5b91908080601f016020809104026020016040519081016040528093929190818152602001838380828437600081840152601f19601f820116905080830192505050505050509192919290803590602001909291908035906020019064010000000081111561244657600080fd5b82018360208201111561245857600080fd5b8035906020019184600183028401116401000000008311171561247a57600080fd5b91908080601f016020809104026020016040519081016040528093929190818152602001838380828437600081840152601f19601f82011690508083019250505050505050919291929080359060200190929190803590602001906401000000008111156124e757600080fd5b8201836020820111156124f957600080fd5b8035906020019184600183028401116401000000008311171561251b57600080fd5b91908080601f016020809104026020016040519081016040528093929190818152602001838380828437600081840152601f19601f820116905080830192505050505050509192919290803590602001909291905050506146f4565b005b6126326004803603602081101561258f57600080fd5b81019080803590602001906401000000008111156125ac57600080fd5b8201836020820111156125be57600080fd5b803590602001918460018302840111640100000000831117156125e057600080fd5b91908080601f016020809104026020016040519081016040528093929190818152602001838380828437600081840152601f19601f8201169050808301925050505050505091929192905050506148eb565b6040518082815260200191505060405180910390f35b6127016004803603602081101561265e57600080fd5b810190808035906020019064010000000081111561267b57600080fd5b82018360208201111561268d57600080fd5b803590602001918460018302840111640100000000831117156126af57600080fd5b91908080601f016020809104026020016040519081016040528093929190818152602001838380828437600081840152601f19601f82011690508083019250505050505050919291929050505061491f565b60405180806020018060200180602001848103845287818151815260200191508051906020019080838360005b8381101561274957808201518184015260208101905061272e565b50505050905090810190601f1680156127765780820380516001836020036101000a031916815260200191505b50848103835286818151815260200191508051906020019080838360005b838110156127af578082015181840152602081019050612794565b50505050905090810190601f1680156127dc5780820380516001836020036101000a031916815260200191505b50848103825285818151815260200191508051906020019080838360005b838110156128155780820151818401526020810190506127fa565b50505050905090810190601f1680156128425780820380516001836020036101000a031916815260200191505b50965050505050505060405180910390f35b61290d6004803603602081101561286a57600080fd5b810190808035906020019064010000000081111561288757600080fd5b82018360208201111561289957600080fd5b803590602001918460018302840111640100000000831117156128bb57600080fd5b91908080601f016020809104026020016040519081016040528093929190818152602001838380828437600081840152601f19601f820116905080830192505050505050509192919290505050614b27565b60405180806020018060200180602001848103845287818151815260200191508051906020019080838360005b8381101561295557808201518184015260208101905061293a565b50505050905090810190601f1680156129825780820380516001836020036101000a031916815260200191505b50848103835286818151815260200191508051906020019080838360005b838110156129bb5780820151818401526020810190506129a0565b50505050905090810190601f1680156129e85780820380516001836020036101000a031916815260200191505b50848103825285818151815260200191508051906020019080838360005b83811015612a21578082015181840152602081019050612a06565b50505050905090810190601f168015612a4e5780820380516001836020036101000a031916815260200191505b50965050505050505060405180910390f35b612b1960048036036020811015612a7657600080fd5b8101908080359060200190640100000000811115612a9357600080fd5b820183602082011115612aa557600080fd5b80359060200191846001830284011164010000000083111715612ac757600080fd5b91908080601f016020809104026020016040519081016040528093929190818152602001838380828437600081840152601f19601f820116905080830192505050505050509192919290505050614d2f565b005b612bd460048036036020811015612b3157600080fd5b8101908080359060200190640100000000811115612b4e57600080fd5b820183602082011115612b6057600080fd5b80359060200191846001830284011164010000000083111715612b8257600080fd5b91908080601f016020809104026020016040519081016040528093929190818152602001838380828437600081840152601f19601f820116905080830192505050505050509192919290505050614dad565b005b612c8f60048036036020811015612bec57600080fd5b8101908080359060200190640100000000811115612c0957600080fd5b820183602082011115612c1b57600080fd5b80359060200191846001830284011164010000000083111715612c3d57600080fd5b91908080601f016020809104026020016040519081016040528093929190818152602001838380828437600081840152601f19601f820116905080830192505050505050509192919290505050614e71565b604051808060200186815260200185815260200184815260200180602001838103835288818151815260200191508051906020019080838360005b83811015612ce5578082015181840152602081019050612cca565b50505050905090810190601f168015612d125780820380516001836020036101000a031916815260200191505b50838103825284818151815260200191508051906020019080838360005b83811015612d4b578082015181840152602081019050612d30565b50505050905090810190601f168015612d785780820380516001836020036101000a031916815260200191505b5097505050505050505060405180910390f35b600a600081548092919060010191905055506040518060600160405280848152602001838152602001828152506000846040518082805190602001908083835b60208310612dee5780518252602082019150602081019050602083039250612dcb565b6001836020036101000a03801982511681845116808217855250505050505090500191505090815260200160405180910390206000820151816000019080519060200190612e3d929190614fed565b506020820151816001019080519060200190612e5a929190614fed565b506040820151816002019080519060200190612e77929190614fed565b50905050505050565b600f5481565b600c5481565b600581805160208101820180518482526020830160208501208183528095505050505050600091509050806000018054600181600116156101000203166002900480601f016020809104026020016040519081016040528092919081815260200182805460018160011615610100020316600290048015612f4e5780601f10612f2357610100808354040283529160200191612f4e565b820191906000526020600020905b815481529060010190602001808311612f3157829003601f168201915b505050505090806001015490806002018054600181600116156101000203166002900480601f016020809104026020016040519081016040528092919081815260200182805460018160011615610100020316600290048015612ff25780601f10612fc757610100808354040283529160200191612ff2565b820191906000526020600020905b815481529060010190602001808311612fd557829003601f168201915b505050505090806003018054600181600116156101000203166002900480601f0160208091040260200160405190810160405280929190818152602001828054600181600116156101000203166002900480156130905780601f1061306557610100808354040283529160200191613090565b820191906000526020600020905b81548152906001019060200180831161307357829003601f168201915b505050505090806004015490806005018054600181600116156101000203166002900480601f0160208091040260200160405190810160405280929190818152602001828054600181600116156101000203166002900480156131345780601f1061310957610100808354040283529160200191613134565b820191906000526020600020905b81548152906001019060200180831161311757829003601f168201915b505050505090806006018054600181600116156101000203166002900480601f0160208091040260200160405190810160405280929190818152602001828054600181600116156101000203166002900480156131d25780601f106131a7576101008083540402835291602001916131d2565b820191906000526020600020905b8154815290600101906020018083116131b557829003601f168201915b5050505050908060070160009054906101000a900460ff16905088565b600b5481565b816002846040518082805190602001908083835b6020831061322c5780518252602082019150602081019050602083039250613209565b6001836020036101000a0380198251168184511680821785525050505050509050019150509081526020016040518091039020600501908051906020019061327592919061506d565b50806002846040518082805190602001908083835b602083106132ad578051825260208201915060208101905060208303925061328a565b6001836020036101000a038019825116818451168082178552505050505050905001915050908152602001604051809103902060060181905550505050565b600281805160208101820180518482526020830160208501208183528095505050505050600091509050806000018054600181600116156101000203166002900480601f0160208091040260200160405190810160405280929190818152602001828054600181600116156101000203166002900480156133ae5780601f10613383576101008083540402835291602001916133ae565b820191906000526020600020905b81548152906001019060200180831161339157829003601f168201915b505050505090806001018054600181600116156101000203166002900480601f01602080910402602001604051908101604052809291908181526020018280546001816001161561010002031660029004801561344c5780601f106134215761010080835404028352916020019161344c565b820191906000526020600020905b81548152906001019060200180831161342f57829003601f168201915b505050505090806002015490806003018054600181600116156101000203166002900480601f0160208091040260200160405190810160405280929190818152602001828054600181600116156101000203166002900480156134f05780601f106134c5576101008083540402835291602001916134f0565b820191906000526020600020905b8154815290600101906020018083116134d357829003601f168201915b505050505090806004015490806005018054600181600116156101000203166002900480601f0160208091040260200160405190810160405280929190818152602001828054600181600116156101000203166002900480156135945780601f1061356957610100808354040283529160200191613594565b820191906000526020600020905b81548152906001019060200180831161357757829003601f168201915b505050505090806006015490806007018054600181600116156101000203166002900480601f0160208091040260200160405190810160405280929190818152602001828054600181600116156101000203166002900480156136385780601f1061360d57610100808354040283529160200191613638565b820191906000526020600020905b81548152906001019060200180831161361b57829003601f168201915b5050505050908060080154905089565b600381805160208101820180518482526020830160208501208183528095505050505050600091509050806000018054600181600116156101000203166002900480601f01602080910402602001604051908101604052809291908181526020018280546001816001161561010002031660029004801561370a5780601f106136df5761010080835404028352916020019161370a565b820191906000526020600020905b8154815290600101906020018083116136ed57829003601f168201915b505050505090806001018054600181600116156101000203166002900480601f0160208091040260200160405190810160405280929190818152602001828054600181600116156101000203166002900480156137a85780601f1061377d576101008083540402835291602001916137a8565b820191906000526020600020905b81548152906001019060200180831161378b57829003601f168201915b505050505090806002018054600181600116156101000203166002900480601f0160208091040260200160405190810160405280929190818152602001828054600181600116156101000203166002900480156138465780601f1061381b57610100808354040283529160200191613846565b820191906000526020600020905b81548152906001019060200180831161382957829003601f168201915b5050505050905083565b6040518060a00160405280868152602001858152602001848152602001838152602001828152506006866040518082805190602001908083835b602083106138ad578051825260208201915060208101905060208303925061388a565b6001836020036101000a038019825116818451168082178552505050505050905001915050908152602001604051809103902060008201518160000190805190602001906138fc929190614fed565b506020820151816001015560408201518160020155606082015181600301556080820151816004019080519060200190613937929190614fed565b509050505050505050565b600d5481565b600e5481565b600b600081548092919060010191905055506040518060600160405280848152602001838152602001828152506003846040518082805190602001908083835b602083106139b1578051825260208201915060208101905060208303925061398e565b6001836020036101000a03801982511681845116808217855250505050505090500191505090815260200160405180910390206000820151816000019080519060200190613a00929190614fed565b506020820151816001019080519060200190613a1d929190614fed565b506040820151816002019080519060200190613a3a929190614fed565b50905050505050565b600d600081548092919060010191905055506040518061010001604052808981526020018881526020018781526020018681526020018581526020018481526020018381526020018215158152506005866040518082805190602001908083835b60208310613ac75780518252602082019150602081019050602083039250613aa4565b6001836020036101000a03801982511681845116808217855250505050505090500191505090815260200160405180910390206000820151816000019080519060200190613b16929190614fed565b50602082015181600101556040820151816002019080519060200190613b3d929190614fed565b506060820151816003019080519060200190613b5a929190614fed565b506080820151816004015560a0820151816005019080519060200190613b81929190614fed565b5060c0820151816006019080519060200190613b9e929190614fed565b5060e08201518160070160006101000a81548160ff0219169083151502179055509050505050505050505050565b600481805160208101820180518482526020830160208501208183528095505050505050600091509050806000018054600181600116156101000203166002900480601f016020809104026020016040519081016040528092919081815260200182805460018160011615610100020316600290048015613c8e5780601f10613c6357610100808354040283529160200191613c8e565b820191906000526020600020905b815481529060010190602001808311613c7157829003601f168201915b505050505090806001018054600181600116156101000203166002900480601f016020809104026020016040519081016040528092919081815260200182805460018160011615610100020316600290048015613d2c5780601f10613d0157610100808354040283529160200191613d2c565b820191906000526020600020905b815481529060010190602001808311613d0f57829003601f168201915b505050505090806002018054600181600116156101000203166002900480601f016020809104026020016040519081016040528092919081815260200182805460018160011615610100020316600290048015613dca5780601f10613d9f57610100808354040283529160200191613dca565b820191906000526020600020905b815481529060010190602001808311613dad57829003601f168201915b505050505090806003018054600181600116156101000203166002900480601f016020809104026020016040519081016040528092919081815260200182805460018160011615610100020316600290048015613e685780601f10613e3d57610100808354040283529160200191613e68565b820191906000526020600020905b815481529060010190602001808311613e4b57829003601f168201915b5050505050905084565b816002846040518082805190602001908083835b60208310613ea95780518252602082019150602081019050602083039250613e86565b6001836020036101000a03801982511681845116808217855250505050505090500191505090815260200160405180910390206007019080519060200190613ef292919061506d565b50806002846040518082805190602001908083835b60208310613f2a5780518252602082019150602081019050602083039250613f07565b6001836020036101000a038019825116818451168082178552505050505050905001915050908152602001604051809103902060080181905550505050565b6009602052806000526040600020600091509050806000018054600181600116156101000203166002900480601f0160208091040260200160405190810160405280929190818152602001828054600181600116156101000203166002900480156140155780601f10613fea57610100808354040283529160200191614015565b820191906000526020600020905b815481529060010190602001808311613ff857829003601f168201915b505050505090806001018054600181600116156101000203166002900480601f0160208091040260200160405190810160405280929190818152602001828054600181600116156101000203166002900480156140b35780601f10614088576101008083540402835291602001916140b3565b820191906000526020600020905b81548152906001019060200180831161409657829003601f168201915b505050505090806002018054600181600116156101000203166002900480601f0160208091040260200160405190810160405280929190818152602001828054600181600116156101000203166002900480156141515780601f1061412657610100808354040283529160200191614151565b820191906000526020600020905b81548152906001019060200180831161413457829003601f168201915b5050505050905083565b6006826040518082805190602001908083835b60208310614191578051825260208201915060208101905060208303925061416e565b6001836020036101000a0380198251168184511680821785525050505050509050019150509081526020016040518091039020600201548110801561424157506006826040518082805190602001908083835b6020831061420757805182526020820191506020810190506020830392506141e4565b6001836020036101000a03801982511681845116808217855250505050505090500191505090815260200160405180910390206001015481115b156142d05760016007836040518082805190602001908083835b6020831061427e578051825260208201915060208101905060208303925061425b565b6001836020036101000a038019825116818451168082178552505050505050905001915050908152602001604051809103902060010160006101000a81548160ff021916908315150217905550614356565b60006007836040518082805190602001908083835b6020831061430857805182526020820191506020810190506020830392506142e5565b6001836020036101000a038019825116818451168082178552505050505050905001915050908152602001604051809103902060010160006101000a81548160ff0219169083151502179055505b5050565b600e600081548092919060010191905055506040518060600160405280848152602001838152602001828152506001846040518082805190602001908083835b602083106143bd578051825260208201915060208101905060208303925061439a565b6001836020036101000a0380198251168184511680821785525050505050509050019150509081526020016040518091039020600082015181600001908051906020019061440c929190614fed565b506020820151816001019080519060200190614429929190614fed565b506040820151816002019080519060200190614446929190614fed565b50905050505050565b600781805160208101820180518482526020830160208501208183528095505050505050600091509050806000018054600181600116156101000203166002900480601f0160208091040260200160405190810160405280929190818152602001828054600181600116156101000203166002900480156145115780601f106144e657610100808354040283529160200191614511565b820191906000526020600020905b8154815290600101906020018083116144f457829003601f168201915b5050505050908060010160009054906101000a900460ff16905082565b601060008154809291906001019190505550604051806060016040528084815260200183815260200182815250600960006010548152602001908152602001600020600082015181600001908051906020019061458c929190614fed565b5060208201518160010190805190602001906145a9929190614fed565b5060408201518160020190805190602001906145c6929190614fed565b50905050505050565b600a5481565b60105481565b600c600081548092919060010191905055506040518060800160405280858152602001848152602001838152602001828152506004856040518082805190602001908083835b602083106146445780518252602082019150602081019050602083039250614621565b6001836020036101000a03801982511681845116808217855250505050505090500191505090815260200160405180910390206000820151816000019080519060200190614693929190614fed565b5060208201518160010190805190602001906146b0929190614fed565b5060408201518160020190805190602001906146cd929190614fed565b5060608201518160030190805190602001906146ea929190614fed565b5090505050505050565b6040518061012001604052808a81526020018981526020018881526020018781526020018681526020018581526020018481526020018381526020018281525060028a6040518082805190602001908083835b6020831061476a5780518252602082019150602081019050602083039250614747565b6001836020036101000a038019825116818451168082178552505050505050905001915050908152602001604051809103902060008201518160000190805190602001906147b9929190614fed565b5060208201518160010190805190602001906147d6929190614fed565b506040820151816002015560608201518160030190805190602001906147fd929190614fed565b506080820151816004015560a0820151816005019080519060200190614824929190614fed565b5060c0820151816006015560e082015181600701908051906020019061484b929190614fed565b506101008201518160080155905050604051806020016040528060008152506008896040518082805190602001908083835b602083106148a0578051825260208201915060208101905060208303925061487d565b6001836020036101000a038019825116818451168082178552505050505050905001915050908152602001604051809103902060008201518160000155905050505050505050505050565b6008818051602081018201805184825260208301602085012081835280955050505050506000915090508060000154905081565b600181805160208101820180518482526020830160208501208183528095505050505050600091509050806000018054600181600116156101000203166002900480601f0160208091040260200160405190810160405280929190818152602001828054600181600116156101000203166002900480156149e15780601f106149b6576101008083540402835291602001916149e1565b820191906000526020600020905b8154815290600101906020018083116149c457829003601f168201915b505050505090806001018054600181600116156101000203166002900480601f016020809104026020016040519081016040528092919081815260200182805460018160011615610100020316600290048015614a7f5780601f10614a5457610100808354040283529160200191614a7f565b820191906000526020600020905b815481529060010190602001808311614a6257829003601f168201915b505050505090806002018054600181600116156101000203166002900480601f016020809104026020016040519081016040528092919081815260200182805460018160011615610100020316600290048015614b1d5780601f10614af257610100808354040283529160200191614b1d565b820191906000526020600020905b815481529060010190602001808311614b0057829003601f168201915b5050505050905083565b600081805160208101820180518482526020830160208501208183528095505050505050600091509050806000018054600181600116156101000203166002900480601f016020809104026020016040519081016040528092919081815260200182805460018160011615610100020316600290048015614be95780601f10614bbe57610100808354040283529160200191614be9565b820191906000526020600020905b815481529060010190602001808311614bcc57829003601f168201915b505050505090806001018054600181600116156101000203166002900480601f016020809104026020016040519081016040528092919081815260200182805460018160011615610100020316600290048015614c875780601f10614c5c57610100808354040283529160200191614c87565b820191906000526020600020905b815481529060010190602001808311614c6a57829003601f168201915b505050505090806002018054600181600116156101000203166002900480601f016020809104026020016040519081016040528092919081815260200182805460018160011615610100020316600290048015614d255780601f10614cfa57610100808354040283529160200191614d25565b820191906000526020600020905b815481529060010190602001808311614d0857829003601f168201915b5050505050905083565b60016008826040518082805190602001908083835b60208310614d675780518252602082019150602081019050602083039250614d44565b6001836020036101000a03801982511681845116808217855250505050505090500191505090815260200160405180910390206000016000828254019250508190555050565b6040518060400160405280828152602001600015158152506007826040518082805190602001908083835b60208310614dfb5780518252602082019150602081019050602083039250614dd8565b6001836020036101000a03801982511681845116808217855250505050505090500191505090815260200160405180910390206000820151816000019080519060200190614e4a929190614fed565b5060208201518160010160006101000a81548160ff02191690831515021790555090505050565b600681805160208101820180518482526020830160208501208183528095505050505050600091509050806000018054600181600116156101000203166002900480601f016020809104026020016040519081016040528092919081815260200182805460018160011615610100020316600290048015614f335780601f10614f0857610100808354040283529160200191614f33565b820191906000526020600020905b815481529060010190602001808311614f1657829003601f168201915b505050505090806001015490806002015490806003015490806004018054600181600116156101000203166002900480601f016020809104026020016040519081016040528092919081815260200182805460018160011615610100020316600290048015614fe35780601f10614fb857610100808354040283529160200191614fe3565b820191906000526020600020905b815481529060010190602001808311614fc657829003601f168201915b5050505050905085565b828054600181600116156101000203166002900490600052602060002090601f016020900481019282601f1061502e57805160ff191683800117855561505c565b8280016001018555821561505c579182015b8281111561505b578251825591602001919060010190615040565b5b50905061506991906150ed565b5090565b828054600181600116156101000203166002900490600052602060002090601f016020900481019282601f106150ae57805160ff19168380011785556150dc565b828001600101855582156150dc579182015b828111156150db5782518255916020019190600101906150c0565b5b5090506150e991906150ed565b5090565b61510f91905b8082111561510b5760008160009055506001016150f3565b5090565b9056fea2646970667358221220fc61173dfd37f57b8eca814ffef5b4bd45cae8af225cd03e4c0d21c9e3fb545764736f6c63430006020033",
  "source": "pragma solidity ^0.6.2;\r\ncontract VaxiChain{\r\n    \r\n    mapping(string => Manufacture) public manufacture;\r\n    mapping(string => Doctor) public doctor;\r\n    mapping(string => Vaccine) public vaccine;\r\n    mapping(string => Distributor) public distributor;\r\n    mapping(string => VaccineCenter) public vaccineCenter;\r\n    mapping(string => Beneficiary) public beneficiary;\r\n    mapping(string => Rules ) public rules;\r\n    mapping(string => Violation ) public violation;\r\n    mapping(string => OnDemand) public onDemand;\r\n    mapping(uint => SideEffects) public sideEffects;\r\n    \r\n    uint256 public manufactureCount = 0;\r\n    uint256 public distributorCount = 0;\r\n    uint256 public vaccineCenterCount = 0;\r\n    uint256 public beneficiaryCount = 0;\r\n    uint256 public doctorCount = 0;\r\n    uint256 public doseCount = 0;\r\n    uint256 public sideEffectCount = 0;\r\n    \r\n    struct Manufacture{\r\n        string licenceNO;\r\n        string name;\r\n        string location;\r\n    }\r\n    \r\n    struct OnDemand{\r\n        uint256 doses;\r\n    }\r\n    \r\n    struct Rules{\r\n        string vaccine_id;\r\n        uint min_temp;\r\n        uint max_temp;\r\n        uint doses;\r\n        string manuactureDate;\r\n        \r\n    }\r\n    \r\n    struct Violation{\r\n        string vaccine_id;\r\n        bool violated;\r\n    }\r\n    \r\n    struct SideEffects{\r\n        string vaccine_id;\r\n        string beneficiary_id;\r\n        string sideEffect;\r\n    }\r\n    \r\n    struct Vaccine{\r\n        string vaccine_id;\r\n        string name;\r\n        uint vails;\r\n        string expdate;\r\n        uint manufactureId;\r\n        string arrived_dateDistributor;\r\n        uint distributorId;\r\n        string arrived_dateVaccineCenter;\r\n        uint vaccineCenterId;\r\n    }\r\n    \r\n    struct Distributor{\r\n        string licenceNO;\r\n        string name;\r\n        string location;\r\n   }\r\n   \r\n    struct VaccineCenter{\r\n        string licenceNO;\r\n        string name;       \r\n        string phone;\r\n        string location;\r\n\r\n   }\r\n   \r\n    struct Doctor{\r\n        string licenceNO;\r\n        string name;     \r\n        string phone;\r\n   }  \r\n\r\n    struct Beneficiary{\r\n        string name;\r\n        uint age;\r\n        string gender;\r\n        string adharID;\r\n        uint doctorID;\r\n        string vaccinated_date;\r\n        string vaccine_center;\r\n        bool vaccinated;\r\n    }\r\n   \r\n    \r\n    function AddManufacture(string memory licenceNo, string memory name, string memory location) public{\r\n       manufactureCount++;\r\n       manufacture[licenceNo] = Manufacture(licenceNo, name, location);\r\n   }\r\n  \r\n   function AddDistributer(string memory licenceNo, string memory name, string memory location) public{\r\n        distributorCount++;\r\n        distributor[licenceNo] = Distributor(licenceNo, name, location);\r\n    }\r\n  \r\n    function AddVaccineCenter(string memory licenceNo, string memory name,  string memory phone,  string memory location) public{\r\n        vaccineCenterCount++;\r\n        vaccineCenter[licenceNo] = VaccineCenter(licenceNo, name, phone, location);\r\n   }\r\n        \r\n    function AddBeneficiary(string memory name, uint age, string memory gender, string memory  AdharID, uint doctorID, string memory vaccinated_date,  string memory vaccine_center, bool vaccinated ) public{\r\n        beneficiaryCount++;\r\n        beneficiary[AdharID] = Beneficiary(name, age, gender, AdharID, doctorID, vaccinated_date,vaccine_center,vaccinated);\r\n   }  \r\n   \r\n   function VaccineRegister(string memory vaccine_name) public{\r\n       onDemand[vaccine_name].doses += 1; \r\n   }\r\n   \r\n   function AddDoctor(string memory licenseNo, string memory name, string memory phone)public{\r\n       doctorCount++;\r\n       doctor[licenseNo] = Doctor(licenseNo, name, phone);\r\n   }\r\n   \r\n   function ManuFacturedVaccine(string memory id, string memory name, uint vails, string memory exp_date, uint manfacturer, string memory arrived_date_distributor, uint distributor, string memory arrived_date_vaccine_center, uint vaccine_center )public{\r\n       vaccine[id] = Vaccine(id, name, vails, exp_date, manfacturer, arrived_date_distributor, distributor,  arrived_date_vaccine_center, vaccine_center);\r\n       onDemand[name] = OnDemand(0);\r\n   }\r\n   \r\n   function AddRules(string memory id, uint min_temp, uint max_temp, uint doses, string memory manufacture_date)public{\r\n        rules[id] = Rules(id, min_temp, max_temp, doses, manufacture_date);\r\n   }\r\n   \r\n   function AddViolation(string memory id)public{\r\n       violation[id] = Violation(id, false);\r\n   }\r\n   \r\n   function AddSideEffect(string memory id, string memory beneficiary_id, string memory txt)public{\r\n       sideEffectCount++;\r\n       sideEffects[sideEffectCount] = SideEffects(id, beneficiary_id, txt);\r\n   }\r\n   \r\n   function ArrivedDistributor(string memory id, string memory arrived_date, uint distributor_id)public{\r\n       vaccine[id].arrived_dateDistributor = arrived_date;\r\n       vaccine[id].distributorId = distributor_id;\r\n   }\r\n   \r\n   function ArrivedVaccineCenter(string memory id, string memory arrived_date, uint vaccine_center_id)public{\r\n       vaccine[id].arrived_dateVaccineCenter = arrived_date;\r\n       vaccine[id].vaccineCenterId = vaccine_center_id;\r\n   }\r\n   \r\n   function tracking(string memory vaccine_id, uint temp)public{\r\n       if(temp < rules[vaccine_id].max_temp && temp > rules[vaccine_id].min_temp){\r\n           violation[vaccine_id].violated = true;\r\n       }else{\r\n           violation[vaccine_id].violated = false;\r\n       }\r\n   }\r\n}",
  "sourcePath": "C:/Users/pc/VAXICHAIN/contracts/VaxiChain.sol",
  "compiler": {
    "name": "solc",
    "version": "0.6.2+commit.bacdbe57.Emscripten.clang"
  },
  "schemaVersion": "3.4.1",
  "updatedAt": "2021-07-31T10:05:21.209Z",
  "networkType": "ethereum",
  "devdoc": {
    "methods": {}
  },
  "userdoc": {
    "methods": {}
  }
}